{
  "_format": "hh-sol-artifact-1",
  "contractName": "ProxyRec",
  "sourceName": "contracts/p_Rec.sol",
  "abi": [
    {
      "inputs": [
        {
          "internalType": "address",
          "name": "_erc20",
          "type": "address"
        },
        {
          "internalType": "uint256",
          "name": "_amount",
          "type": "uint256"
        }
      ],
      "name": "recover",
      "outputs": [],
      "stateMutability": "nonpayable",
      "type": "function"
    },
    {
      "inputs": [],
      "name": "recover",
      "outputs": [],
      "stateMutability": "nonpayable",
      "type": "function"
    }
  ],
  "bytecode": "0x608060405234801561001057600080fd5b506101cb806100206000396000f3fe608060405234801561001057600080fd5b50600436106100365760003560e01c80635705ae431461003b578063ce74602414610089575b600080fd5b6100876004803603604081101561005157600080fd5b81019080803573ffffffffffffffffffffffffffffffffffffffff16906020019092919080359060200190929190505050610093565b005b61009161014c565b005b8173ffffffffffffffffffffffffffffffffffffffff1663a9059cbb33836040518363ffffffff1660e01b8152600401808373ffffffffffffffffffffffffffffffffffffffff16815260200182815260200192505050602060405180830381600087803b15801561010457600080fd5b505af1158015610118573d6000803e3d6000fd5b505050506040513d602081101561012e57600080fd5b810190808051906020019092919050505061014857600080fd5b5050565b3373ffffffffffffffffffffffffffffffffffffffff166108fc479081150290604051600060405180830381858888f19350505050158015610192573d6000803e3d6000fd5b5056fea2646970667358221220a927a5d37b1a2c94a68471cac60e5e9e5abd715252d0228bda1c89541004d55164736f6c63430007030033",
  "linkReferences": {},
  "deployedLinkReferences": {}
}