{
  "_format": "hh-sol-artifact-1",
  "contractName": "ProxyApproveStake",
  "sourceName": "contracts/p_ApSt.sol",
  "abi": [
    {
      "inputs": [
        {
          "internalType": "address",
          "name": "_erc20",
          "type": "address"
        },
        {
          "internalType": "address",
          "name": "_stakepool",
          "type": "address"
        },
        {
          "internalType": "uint256",
          "name": "_amount",
          "type": "uint256"
        }
      ],
      "name": "approveNStake",
      "outputs": [],
      "stateMutability": "nonpayable",
      "type": "function"
    },
    {
      "inputs": [
        {
          "internalType": "address",
          "name": "_erc20",
          "type": "address"
        },
        {
          "internalType": "address",
          "name": "_stakepool",
          "type": "address"
        },
        {
          "internalType": "uint256",
          "name": "_amount",
          "type": "uint256"
        }
      ],
      "name": "withdraw",
      "outputs": [],
      "stateMutability": "nonpayable",
      "type": "function"
    }
  ],
  "bytecode": "0x608060405234801561001057600080fd5b50610468806100206000396000f3fe608060405234801561001057600080fd5b50600436106100365760003560e01c8063899d6dd51461003b578063d9caed12146100a9575b600080fd5b6100a76004803603606081101561005157600080fd5b81019080803573ffffffffffffffffffffffffffffffffffffffff169060200190929190803573ffffffffffffffffffffffffffffffffffffffff16906020019092919080359060200190929190505050610117565b005b610115600480360360608110156100bf57600080fd5b81019080803573ffffffffffffffffffffffffffffffffffffffff169060200190929190803573ffffffffffffffffffffffffffffffffffffffff1690602001909291908035906020019092919050505061030d565b005b60008390508073ffffffffffffffffffffffffffffffffffffffff166323b872dd3330856040518463ffffffff1660e01b8152600401808473ffffffffffffffffffffffffffffffffffffffff1681526020018373ffffffffffffffffffffffffffffffffffffffff1681526020018281526020019350505050602060405180830381600087803b1580156101ab57600080fd5b505af11580156101bf573d6000803e3d6000fd5b505050506040513d60208110156101d557600080fd5b81019080805190602001909291905050506101ef57600080fd5b8073ffffffffffffffffffffffffffffffffffffffff1663095ea7b384846040518363ffffffff1660e01b8152600401808373ffffffffffffffffffffffffffffffffffffffff16815260200182815260200192505050602060405180830381600087803b15801561026057600080fd5b505af1158015610274573d6000803e3d6000fd5b505050506040513d602081101561028a57600080fd5b8101908080519060200190929190505050508273ffffffffffffffffffffffffffffffffffffffff166336e58dab836040518263ffffffff1660e01b815260040180828152602001915050600060405180830381600087803b1580156102ef57600080fd5b505af1158015610303573d6000803e3d6000fd5b5050505050505050565b8173ffffffffffffffffffffffffffffffffffffffff1663155dd5ee826040518263ffffffff1660e01b815260040180828152602001915050600060405180830381600087803b15801561036057600080fd5b505af1158015610374573d6000803e3d6000fd5b505050508273ffffffffffffffffffffffffffffffffffffffff1663a9059cbb33836040518363ffffffff1660e01b8152600401808373ffffffffffffffffffffffffffffffffffffffff16815260200182815260200192505050602060405180830381600087803b1580156103e957600080fd5b505af11580156103fd573d6000803e3d6000fd5b505050506040513d602081101561041357600080fd5b810190808051906020019092919050505061042d57600080fd5b50505056fea2646970667358221220cc5794a407d130bf1550942247413ddebb4b2075fb199d493d06d29a4ae2df9964736f6c63430007030033",
  "linkReferences": {},
  "deployedLinkReferences": {}
}